{
	"contracts/3_Ballot.sol": {
		"Lottery": {
			"abi": [
				{
					"inputs": [],
					"stateMutability": "nonpayable",
					"type": "constructor"
				},
				{
					"inputs": [],
					"name": "getPlayers",
					"outputs": [
						{
							"internalType": "address payable[]",
							"name": "",
							"type": "address[]"
						}
					],
					"stateMutability": "view",
					"type": "function"
				},
				{
					"inputs": [],
					"name": "manager",
					"outputs": [
						{
							"internalType": "address",
							"name": "",
							"type": "address"
						}
					],
					"stateMutability": "view",
					"type": "function"
				},
				{
					"inputs": [],
					"name": "pickWinner",
					"outputs": [],
					"stateMutability": "nonpayable",
					"type": "function"
				},
				{
					"inputs": [
						{
							"internalType": "uint256",
							"name": "",
							"type": "uint256"
						}
					],
					"name": "players",
					"outputs": [
						{
							"internalType": "address payable",
							"name": "",
							"type": "address"
						}
					],
					"stateMutability": "view",
					"type": "function"
				},
				{
					"stateMutability": "payable",
					"type": "receive"
				}
			],
			"devdoc": {
				"kind": "dev",
				"methods": {},
				"version": 1
			},
			"evm": {
				"assembly": "    /* \"contracts/3_Ballot.sol\":58:1190  contract Lottery {... */\n  mstore(0x40, 0x80)\n    /* \"contracts/3_Ballot.sol\":148:199  constructor() {... */\n  callvalue\n  dup1\n  iszero\n  tag_1\n  jumpi\n  0x00\n  dup1\n  revert\ntag_1:\n  pop\n    /* \"contracts/3_Ballot.sol\":182:192  msg.sender */\n  caller\n    /* \"contracts/3_Ballot.sol\":172:179  manager */\n  0x00\n  dup1\n    /* \"contracts/3_Ballot.sol\":172:192  manager = msg.sender */\n  0x0100\n  exp\n  dup2\n  sload\n  dup2\n  0xffffffffffffffffffffffffffffffffffffffff\n  mul\n  not\n  and\n  swap1\n  dup4\n  0xffffffffffffffffffffffffffffffffffffffff\n  and\n  mul\n  or\n  swap1\n  sstore\n  pop\n    /* \"contracts/3_Ballot.sol\":58:1190  contract Lottery {... */\n  dataSize(sub_0)\n  dup1\n  dataOffset(sub_0)\n  0x00\n  codecopy\n  0x00\n  return\nstop\n\nsub_0: assembly {\n        /* \"contracts/3_Ballot.sol\":58:1190  contract Lottery {... */\n      mstore(0x40, 0x80)\n      jumpi(tag_1, lt(calldatasize, 0x04))\n      shr(0xe0, calldataload(0x00))\n      dup1\n      0x481c6a75\n      eq\n      tag_3\n      jumpi\n      dup1\n      0x5d495aea\n      eq\n      tag_4\n      jumpi\n      dup1\n      0x8b5b9ccc\n      eq\n      tag_5\n      jumpi\n      dup1\n      0xf71d96cb\n      eq\n      tag_6\n      jumpi\n      jump(tag_2)\n    tag_1:\n      jumpi(tag_2, calldatasize)\n        /* \"contracts/3_Ballot.sol\":263:272  0.1 ether */\n      0x016345785d8a0000\n        /* \"contracts/3_Ballot.sol\":250:259  msg.value */\n      callvalue\n        /* \"contracts/3_Ballot.sol\":250:272  msg.value == 0.1 ether */\n      eq\n        /* \"contracts/3_Ballot.sol\":242:314  require(msg.value == 0.1 ether, \"Must be 0.01ETH to enter the lottery.\") */\n      tag_9\n      jumpi\n      mload(0x40)\n      0x08c379a000000000000000000000000000000000000000000000000000000000\n      dup2\n      mstore\n      0x04\n      add\n      tag_10\n      swap1\n      tag_11\n      jump\t// in\n    tag_10:\n      mload(0x40)\n      dup1\n      swap2\n      sub\n      swap1\n      revert\n    tag_9:\n        /* \"contracts/3_Ballot.sol\":367:374  players */\n      0x01\n        /* \"contracts/3_Ballot.sol\":388:398  msg.sender */\n      caller\n        /* \"contracts/3_Ballot.sol\":367:400  players.push(payable(msg.sender)) */\n      swap1\n      dup1\n      0x01\n      dup2\n      sload\n      add\n      dup1\n      dup3\n      sstore\n      dup1\n      swap2\n      pop\n      pop\n      0x01\n      swap1\n      sub\n      swap1\n      0x00\n      mstore\n      keccak256(0x00, 0x20)\n      add\n      0x00\n      swap1\n      swap2\n      swap1\n      swap2\n      swap1\n      swap2\n      0x0100\n      exp\n      dup2\n      sload\n      dup2\n      0xffffffffffffffffffffffffffffffffffffffff\n      mul\n      not\n      and\n      swap1\n      dup4\n      0xffffffffffffffffffffffffffffffffffffffff\n      and\n      mul\n      or\n      swap1\n      sstore\n      stop\n        /* \"contracts/3_Ballot.sol\":58:1190  contract Lottery {... */\n    tag_2:\n      0x00\n      dup1\n      revert\n        /* \"contracts/3_Ballot.sol\":81:103  address public manager */\n    tag_3:\n      callvalue\n      dup1\n      iszero\n      tag_13\n      jumpi\n      0x00\n      dup1\n      revert\n    tag_13:\n      pop\n      tag_14\n      tag_15\n      jump\t// in\n    tag_14:\n      mload(0x40)\n      tag_16\n      swap2\n      swap1\n      tag_17\n      jump\t// in\n    tag_16:\n      mload(0x40)\n      dup1\n      swap2\n      sub\n      swap1\n      return\n        /* \"contracts/3_Ballot.sol\":689:1067  function pickWinner() public managerOnly {... */\n    tag_4:\n      callvalue\n      dup1\n      iszero\n      tag_18\n      jumpi\n      0x00\n      dup1\n      revert\n    tag_18:\n      pop\n      tag_19\n      tag_20\n      jump\t// in\n    tag_19:\n      stop\n        /* \"contracts/3_Ballot.sol\":413:525  function getPlayers() public view managerOnly returns (address payable[] memory) {... */\n    tag_5:\n      callvalue\n      dup1\n      iszero\n      tag_21\n      jumpi\n      0x00\n      dup1\n      revert\n    tag_21:\n      pop\n      tag_22\n      tag_23\n      jump\t// in\n    tag_22:\n      mload(0x40)\n      tag_24\n      swap2\n      swap1\n      tag_25\n      jump\t// in\n    tag_24:\n      mload(0x40)\n      dup1\n      swap2\n      sub\n      swap1\n      return\n        /* \"contracts/3_Ballot.sol\":109:141  address payable[] public players */\n    tag_6:\n      callvalue\n      dup1\n      iszero\n      tag_26\n      jumpi\n      0x00\n      dup1\n      revert\n    tag_26:\n      pop\n      tag_27\n      0x04\n      dup1\n      calldatasize\n      sub\n      dup2\n      add\n      swap1\n      tag_28\n      swap2\n      swap1\n      tag_29\n      jump\t// in\n    tag_28:\n      tag_30\n      jump\t// in\n    tag_27:\n      mload(0x40)\n      tag_31\n      swap2\n      swap1\n      tag_32\n      jump\t// in\n    tag_31:\n      mload(0x40)\n      dup1\n      swap2\n      sub\n      swap1\n      return\n        /* \"contracts/3_Ballot.sol\":81:103  address public manager */\n    tag_15:\n      0x00\n      dup1\n      sload\n      swap1\n      0x0100\n      exp\n      swap1\n      div\n      0xffffffffffffffffffffffffffffffffffffffff\n      and\n      dup2\n      jump\t// out\n        /* \"contracts/3_Ballot.sol\":689:1067  function pickWinner() public managerOnly {... */\n    tag_20:\n        /* \"contracts/3_Ballot.sol\":1128:1135  manager */\n      0x00\n      dup1\n      sload\n      swap1\n      0x0100\n      exp\n      swap1\n      div\n      0xffffffffffffffffffffffffffffffffffffffff\n      and\n        /* \"contracts/3_Ballot.sol\":1114:1135  msg.sender == manager */\n      0xffffffffffffffffffffffffffffffffffffffff\n      and\n        /* \"contracts/3_Ballot.sol\":1114:1124  msg.sender */\n      caller\n        /* \"contracts/3_Ballot.sol\":1114:1135  msg.sender == manager */\n      0xffffffffffffffffffffffffffffffffffffffff\n      and\n      eq\n        /* \"contracts/3_Ballot.sol\":1106:1170  require(msg.sender == manager, \"Can only be called by manager.\") */\n      tag_34\n      jumpi\n      mload(0x40)\n      0x08c379a000000000000000000000000000000000000000000000000000000000\n      dup2\n      mstore\n      0x04\n      add\n      tag_35\n      swap1\n      tag_36\n      jump\t// in\n    tag_35:\n      mload(0x40)\n      dup1\n      swap2\n      sub\n      swap1\n      revert\n    tag_34:\n        /* \"contracts/3_Ballot.sol\":766:767  3 */\n      0x03\n        /* \"contracts/3_Ballot.sol\":748:755  players */\n      0x01\n        /* \"contracts/3_Ballot.sol\":748:762  players.length */\n      dup1\n      sload\n      swap1\n      pop\n        /* \"contracts/3_Ballot.sol\":748:767  players.length >= 3 */\n      lt\n      iszero\n        /* \"contracts/3_Ballot.sol\":740:799  require(players.length >= 3, \"Must be at least 3 players.\") */\n      tag_38\n      jumpi\n      mload(0x40)\n      0x08c379a000000000000000000000000000000000000000000000000000000000\n      dup2\n      mstore\n      0x04\n      add\n      tag_39\n      swap1\n      tag_40\n      jump\t// in\n    tag_39:\n      mload(0x40)\n      dup1\n      swap2\n      sub\n      swap1\n      revert\n    tag_38:\n        /* \"contracts/3_Ballot.sol\":809:819  uint index */\n      0x00\n        /* \"contracts/3_Ballot.sol\":837:844  players */\n      0x01\n        /* \"contracts/3_Ballot.sol\":837:851  players.length */\n      dup1\n      sload\n      swap1\n      pop\n        /* \"contracts/3_Ballot.sol\":822:834  randomizer() */\n      tag_41\n        /* \"contracts/3_Ballot.sol\":822:832  randomizer */\n      tag_42\n        /* \"contracts/3_Ballot.sol\":822:834  randomizer() */\n      jump\t// in\n    tag_41:\n        /* \"contracts/3_Ballot.sol\":822:851  randomizer() % players.length */\n      tag_43\n      swap2\n      swap1\n      tag_44\n      jump\t// in\n    tag_43:\n        /* \"contracts/3_Ballot.sol\":809:851  uint index = randomizer() % players.length */\n      swap1\n      pop\n        /* \"contracts/3_Ballot.sol\":861:883  address payable winner */\n      0x00\n        /* \"contracts/3_Ballot.sol\":886:893  players */\n      0x01\n        /* \"contracts/3_Ballot.sol\":894:899  index */\n      dup3\n        /* \"contracts/3_Ballot.sol\":886:900  players[index] */\n      dup2\n      sload\n      dup2\n      lt\n      tag_45\n      jumpi\n      tag_46\n      tag_47\n      jump\t// in\n    tag_46:\n    tag_45:\n      swap1\n      0x00\n      mstore\n      keccak256(0x00, 0x20)\n      add\n      0x00\n      swap1\n      sload\n      swap1\n      0x0100\n      exp\n      swap1\n      div\n      0xffffffffffffffffffffffffffffffffffffffff\n      and\n        /* \"contracts/3_Ballot.sol\":861:900  address payable winner = players[index] */\n      swap1\n      pop\n        /* \"contracts/3_Ballot.sol\":976:982  winner */\n      dup1\n        /* \"contracts/3_Ballot.sol\":976:991  winner.transfer */\n      0xffffffffffffffffffffffffffffffffffffffff\n      and\n        /* \"contracts/3_Ballot.sol\":976:1014  winner.transfer(address(this).balance) */\n      0x08fc\n        /* \"contracts/3_Ballot.sol\":992:1013  address(this).balance */\n      selfbalance\n        /* \"contracts/3_Ballot.sol\":976:1014  winner.transfer(address(this).balance) */\n      swap1\n      dup2\n      iszero\n      mul\n      swap1\n      mload(0x40)\n      0x00\n      mload(0x40)\n      dup1\n      dup4\n      sub\n      dup2\n      dup6\n      dup9\n      dup9\n      call\n      swap4\n      pop\n      pop\n      pop\n      pop\n      iszero\n      dup1\n      iszero\n      tag_50\n      jumpi\n      returndatasize\n      0x00\n      dup1\n      returndatacopy\n      revert(0x00, returndatasize)\n    tag_50:\n      pop\n        /* \"contracts/3_Ballot.sol\":1057:1058  0 */\n      0x00\n        /* \"contracts/3_Ballot.sol\":1035:1059  new address payable[](0) */\n      0xffffffffffffffff\n      dup2\n      gt\n      iszero\n      tag_51\n      jumpi\n      tag_52\n      tag_53\n      jump\t// in\n    tag_52:\n    tag_51:\n      mload(0x40)\n      swap1\n      dup1\n      dup3\n      mstore\n      dup1\n      0x20\n      mul\n      0x20\n      add\n      dup3\n      add\n      0x40\n      mstore\n      dup1\n      iszero\n      tag_54\n      jumpi\n      dup2\n      0x20\n      add\n      0x20\n      dup3\n      mul\n      dup1\n      calldatasize\n      dup4\n      calldatacopy\n      dup1\n      dup3\n      add\n      swap2\n      pop\n      pop\n      swap1\n      pop\n    tag_54:\n      pop\n        /* \"contracts/3_Ballot.sol\":1025:1032  players */\n      0x01\n        /* \"contracts/3_Ballot.sol\":1025:1059  players = new address payable[](0) */\n      swap1\n      dup1\n      mload\n      swap1\n      0x20\n      add\n      swap1\n      tag_55\n      swap3\n      swap2\n      swap1\n      tag_56\n      jump\t// in\n    tag_55:\n      pop\n        /* \"contracts/3_Ballot.sol\":730:1067  {... */\n      pop\n      pop\n        /* \"contracts/3_Ballot.sol\":689:1067  function pickWinner() public managerOnly {... */\n      jump\t// out\n        /* \"contracts/3_Ballot.sol\":413:525  function getPlayers() public view managerOnly returns (address payable[] memory) {... */\n    tag_23:\n        /* \"contracts/3_Ballot.sol\":468:492  address payable[] memory */\n      0x60\n        /* \"contracts/3_Ballot.sol\":1128:1135  manager */\n      0x00\n      dup1\n      sload\n      swap1\n      0x0100\n      exp\n      swap1\n      div\n      0xffffffffffffffffffffffffffffffffffffffff\n      and\n        /* \"contracts/3_Ballot.sol\":1114:1135  msg.sender == manager */\n      0xffffffffffffffffffffffffffffffffffffffff\n      and\n        /* \"contracts/3_Ballot.sol\":1114:1124  msg.sender */\n      caller\n        /* \"contracts/3_Ballot.sol\":1114:1135  msg.sender == manager */\n      0xffffffffffffffffffffffffffffffffffffffff\n      and\n      eq\n        /* \"contracts/3_Ballot.sol\":1106:1170  require(msg.sender == manager, \"Can only be called by manager.\") */\n      tag_58\n      jumpi\n      mload(0x40)\n      0x08c379a000000000000000000000000000000000000000000000000000000000\n      dup2\n      mstore\n      0x04\n      add\n      tag_59\n      swap1\n      tag_36\n      jump\t// in\n    tag_59:\n      mload(0x40)\n      dup1\n      swap2\n      sub\n      swap1\n      revert\n    tag_58:\n        /* \"contracts/3_Ballot.sol\":511:518  players */\n      0x01\n        /* \"contracts/3_Ballot.sol\":504:518  return players */\n      dup1\n      sload\n      dup1\n      0x20\n      mul\n      0x20\n      add\n      mload(0x40)\n      swap1\n      dup2\n      add\n      0x40\n      mstore\n      dup1\n      swap3\n      swap2\n      swap1\n      dup2\n      dup2\n      mstore\n      0x20\n      add\n      dup3\n      dup1\n      sload\n      dup1\n      iszero\n      tag_61\n      jumpi\n      0x20\n      mul\n      dup3\n      add\n      swap2\n      swap1\n      0x00\n      mstore\n      keccak256(0x00, 0x20)\n      swap1\n    tag_62:\n      dup2\n      0x00\n      swap1\n      sload\n      swap1\n      0x0100\n      exp\n      swap1\n      div\n      0xffffffffffffffffffffffffffffffffffffffff\n      and\n      0xffffffffffffffffffffffffffffffffffffffff\n      and\n      dup2\n      mstore\n      0x20\n      add\n      swap1\n      0x01\n      add\n      swap1\n      dup1\n      dup4\n      gt\n      tag_62\n      jumpi\n    tag_61:\n      pop\n      pop\n      pop\n      pop\n      pop\n      swap1\n      pop\n        /* \"contracts/3_Ballot.sol\":413:525  function getPlayers() public view managerOnly returns (address payable[] memory) {... */\n      swap1\n      jump\t// out\n        /* \"contracts/3_Ballot.sol\":109:141  address payable[] public players */\n    tag_30:\n      0x01\n      dup2\n      dup2\n      sload\n      dup2\n      lt\n      tag_63\n      jumpi\n      0x00\n      dup1\n      revert\n    tag_63:\n      swap1\n      0x00\n      mstore\n      keccak256(0x00, 0x20)\n      add\n      0x00\n      swap2\n      pop\n      sload\n      swap1\n      0x0100\n      exp\n      swap1\n      div\n      0xffffffffffffffffffffffffffffffffffffffff\n      and\n      dup2\n      jump\t// out\n        /* \"contracts/3_Ballot.sol\":531:683  function randomizer() internal view returns (uint) {... */\n    tag_42:\n        /* \"contracts/3_Ballot.sol\":576:580  uint */\n      0x00\n        /* \"contracts/3_Ballot.sol\":631:647  block.prevrandao */\n      prevrandao\n        /* \"contracts/3_Ballot.sol\":649:664  block.timestamp */\n      timestamp\n        /* \"contracts/3_Ballot.sol\":666:673  players */\n      0x01\n        /* \"contracts/3_Ballot.sol\":614:674  abi.encodePacked(block.prevrandao, block.timestamp, players) */\n      add(0x20, mload(0x40))\n      tag_66\n      swap4\n      swap3\n      swap2\n      swap1\n      tag_67\n      jump\t// in\n    tag_66:\n      mload(0x40)\n      0x20\n      dup2\n      dup4\n      sub\n      sub\n      dup2\n      mstore\n      swap1\n      0x40\n      mstore\n        /* \"contracts/3_Ballot.sol\":604:675  keccak256(abi.encodePacked(block.prevrandao, block.timestamp, players)) */\n      dup1\n      mload\n      swap1\n      0x20\n      add\n      keccak256\n        /* \"contracts/3_Ballot.sol\":599:676  uint(keccak256(abi.encodePacked(block.prevrandao, block.timestamp, players))) */\n      0x00\n      shr\n        /* \"contracts/3_Ballot.sol\":592:676  return uint(keccak256(abi.encodePacked(block.prevrandao, block.timestamp, players))) */\n      swap1\n      pop\n        /* \"contracts/3_Ballot.sol\":531:683  function randomizer() internal view returns (uint) {... */\n      swap1\n      jump\t// out\n    tag_56:\n      dup3\n      dup1\n      sload\n      dup3\n      dup3\n      sstore\n      swap1\n      0x00\n      mstore\n      keccak256(0x00, 0x20)\n      swap1\n      dup2\n      add\n      swap3\n      dup3\n      iszero\n      tag_68\n      jumpi\n      swap2\n      0x20\n      mul\n      dup3\n      add\n    tag_69:\n      dup3\n      dup2\n      gt\n      iszero\n      tag_70\n      jumpi\n      dup3\n      mload\n      dup3\n      exp(0x0100, 0x00)\n      dup2\n      sload\n      dup2\n      0xffffffffffffffffffffffffffffffffffffffff\n      mul\n      not\n      and\n      swap1\n      dup4\n      0xffffffffffffffffffffffffffffffffffffffff\n      and\n      mul\n      or\n      swap1\n      sstore\n      pop\n      swap2\n      0x20\n      add\n      swap2\n      swap1\n      0x01\n      add\n      swap1\n      jump(tag_69)\n    tag_70:\n    tag_68:\n      pop\n      swap1\n      pop\n      tag_71\n      swap2\n      swap1\n      tag_72\n      jump\t// in\n    tag_71:\n      pop\n      swap1\n      jump\t// out\n    tag_72:\n    tag_73:\n      dup1\n      dup3\n      gt\n      iszero\n      tag_74\n      jumpi\n      0x00\n      dup2\n      0x00\n      swap1\n      sstore\n      pop\n      0x01\n      add\n      jump(tag_73)\n    tag_74:\n      pop\n      swap1\n      jump\t// out\n        /* \"#utility.yul\":7:176   */\n    tag_75:\n        /* \"#utility.yul\":91:102   */\n      0x00\n        /* \"#utility.yul\":125:131   */\n      dup3\n        /* \"#utility.yul\":120:123   */\n      dup3\n        /* \"#utility.yul\":113:132   */\n      mstore\n        /* \"#utility.yul\":165:169   */\n      0x20\n        /* \"#utility.yul\":160:163   */\n      dup3\n        /* \"#utility.yul\":156:170   */\n      add\n        /* \"#utility.yul\":141:170   */\n      swap1\n      pop\n        /* \"#utility.yul\":7:176   */\n      swap3\n      swap2\n      pop\n      pop\n      jump\t// out\n        /* \"#utility.yul\":182:406   */\n    tag_76:\n        /* \"#utility.yul\":322:356   */\n      0x4d75737420626520302e303145544820746f20656e74657220746865206c6f74\n        /* \"#utility.yul\":318:319   */\n      0x00\n        /* \"#utility.yul\":310:316   */\n      dup3\n        /* \"#utility.yul\":306:320   */\n      add\n        /* \"#utility.yul\":299:357   */\n      mstore\n        /* \"#utility.yul\":391:398   */\n      0x746572792e000000000000000000000000000000000000000000000000000000\n        /* \"#utility.yul\":386:388   */\n      0x20\n        /* \"#utility.yul\":378:384   */\n      dup3\n        /* \"#utility.yul\":374:389   */\n      add\n        /* \"#utility.yul\":367:399   */\n      mstore\n        /* \"#utility.yul\":182:406   */\n      pop\n      jump\t// out\n        /* \"#utility.yul\":412:778   */\n    tag_77:\n        /* \"#utility.yul\":554:557   */\n      0x00\n        /* \"#utility.yul\":575:642   */\n      tag_118\n        /* \"#utility.yul\":639:641   */\n      0x25\n        /* \"#utility.yul\":634:637   */\n      dup4\n        /* \"#utility.yul\":575:642   */\n      tag_75\n      jump\t// in\n    tag_118:\n        /* \"#utility.yul\":568:642   */\n      swap2\n      pop\n        /* \"#utility.yul\":651:744   */\n      tag_119\n        /* \"#utility.yul\":740:743   */\n      dup3\n        /* \"#utility.yul\":651:744   */\n      tag_76\n      jump\t// in\n    tag_119:\n        /* \"#utility.yul\":769:771   */\n      0x40\n        /* \"#utility.yul\":764:767   */\n      dup3\n        /* \"#utility.yul\":760:772   */\n      add\n        /* \"#utility.yul\":753:772   */\n      swap1\n      pop\n        /* \"#utility.yul\":412:778   */\n      swap2\n      swap1\n      pop\n      jump\t// out\n        /* \"#utility.yul\":784:1203   */\n    tag_11:\n        /* \"#utility.yul\":950:954   */\n      0x00\n        /* \"#utility.yul\":988:990   */\n      0x20\n        /* \"#utility.yul\":977:986   */\n      dup3\n        /* \"#utility.yul\":973:991   */\n      add\n        /* \"#utility.yul\":965:991   */\n      swap1\n      pop\n        /* \"#utility.yul\":1037:1046   */\n      dup2\n        /* \"#utility.yul\":1031:1035   */\n      dup2\n        /* \"#utility.yul\":1027:1047   */\n      sub\n        /* \"#utility.yul\":1023:1024   */\n      0x00\n        /* \"#utility.yul\":1012:1021   */\n      dup4\n        /* \"#utility.yul\":1008:1025   */\n      add\n        /* \"#utility.yul\":1001:1048   */\n      mstore\n        /* \"#utility.yul\":1065:1196   */\n      tag_121\n        /* \"#utility.yul\":1191:1195   */\n      dup2\n        /* \"#utility.yul\":1065:1196   */\n      tag_77\n      jump\t// in\n    tag_121:\n        /* \"#utility.yul\":1057:1196   */\n      swap1\n      pop\n        /* \"#utility.yul\":784:1203   */\n      swap2\n      swap1\n      pop\n      jump\t// out\n        /* \"#utility.yul\":1209:1335   */\n    tag_78:\n        /* \"#utility.yul\":1246:1253   */\n      0x00\n        /* \"#utility.yul\":1286:1328   */\n      0xffffffffffffffffffffffffffffffffffffffff\n        /* \"#utility.yul\":1279:1284   */\n      dup3\n        /* \"#utility.yul\":1275:1329   */\n      and\n        /* \"#utility.yul\":1264:1329   */\n      swap1\n      pop\n        /* \"#utility.yul\":1209:1335   */\n      swap2\n      swap1\n      pop\n      jump\t// out\n        /* \"#utility.yul\":1341:1437   */\n    tag_79:\n        /* \"#utility.yul\":1378:1385   */\n      0x00\n        /* \"#utility.yul\":1407:1431   */\n      tag_124\n        /* \"#utility.yul\":1425:1430   */\n      dup3\n        /* \"#utility.yul\":1407:1431   */\n      tag_78\n      jump\t// in\n    tag_124:\n        /* \"#utility.yul\":1396:1431   */\n      swap1\n      pop\n        /* \"#utility.yul\":1341:1437   */\n      swap2\n      swap1\n      pop\n      jump\t// out\n        /* \"#utility.yul\":1443:1561   */\n    tag_80:\n        /* \"#utility.yul\":1530:1554   */\n      tag_126\n        /* \"#utility.yul\":1548:1553   */\n      dup2\n        /* \"#utility.yul\":1530:1554   */\n      tag_79\n      jump\t// in\n    tag_126:\n        /* \"#utility.yul\":1525:1528   */\n      dup3\n        /* \"#utility.yul\":1518:1555   */\n      mstore\n        /* \"#utility.yul\":1443:1561   */\n      pop\n      pop\n      jump\t// out\n        /* \"#utility.yul\":1567:1789   */\n    tag_17:\n        /* \"#utility.yul\":1660:1664   */\n      0x00\n        /* \"#utility.yul\":1698:1700   */\n      0x20\n        /* \"#utility.yul\":1687:1696   */\n      dup3\n        /* \"#utility.yul\":1683:1701   */\n      add\n        /* \"#utility.yul\":1675:1701   */\n      swap1\n      pop\n        /* \"#utility.yul\":1711:1782   */\n      tag_128\n        /* \"#utility.yul\":1779:1780   */\n      0x00\n        /* \"#utility.yul\":1768:1777   */\n      dup4\n        /* \"#utility.yul\":1764:1781   */\n      add\n        /* \"#utility.yul\":1755:1761   */\n      dup5\n        /* \"#utility.yul\":1711:1782   */\n      tag_80\n      jump\t// in\n    tag_128:\n        /* \"#utility.yul\":1567:1789   */\n      swap3\n      swap2\n      pop\n      pop\n      jump\t// out\n        /* \"#utility.yul\":1795:1917   */\n    tag_81:\n        /* \"#utility.yul\":1870:1876   */\n      0x00\n        /* \"#utility.yul\":1904:1909   */\n      dup2\n        /* \"#utility.yul\":1898:1910   */\n      mload\n        /* \"#utility.yul\":1888:1910   */\n      swap1\n      pop\n        /* \"#utility.yul\":1795:1917   */\n      swap2\n      swap1\n      pop\n      jump\t// out\n        /* \"#utility.yul\":1923:2115   */\n    tag_82:\n        /* \"#utility.yul\":2030:2041   */\n      0x00\n        /* \"#utility.yul\":2064:2070   */\n      dup3\n        /* \"#utility.yul\":2059:2062   */\n      dup3\n        /* \"#utility.yul\":2052:2071   */\n      mstore\n        /* \"#utility.yul\":2104:2108   */\n      0x20\n        /* \"#utility.yul\":2099:2102   */\n      dup3\n        /* \"#utility.yul\":2095:2109   */\n      add\n        /* \"#utility.yul\":2080:2109   */\n      swap1\n      pop\n        /* \"#utility.yul\":1923:2115   */\n      swap3\n      swap2\n      pop\n      pop\n      jump\t// out\n        /* \"#utility.yul\":2121:2261   */\n    tag_83:\n        /* \"#utility.yul\":2196:2200   */\n      0x00\n        /* \"#utility.yul\":2219:2222   */\n      dup2\n        /* \"#utility.yul\":2211:2222   */\n      swap1\n      pop\n        /* \"#utility.yul\":2249:2253   */\n      0x20\n        /* \"#utility.yul\":2244:2247   */\n      dup3\n        /* \"#utility.yul\":2240:2254   */\n      add\n        /* \"#utility.yul\":2232:2254   */\n      swap1\n      pop\n        /* \"#utility.yul\":2121:2261   */\n      swap2\n      swap1\n      pop\n      jump\t// out\n        /* \"#utility.yul\":2267:2371   */\n    tag_84:\n        /* \"#utility.yul\":2312:2319   */\n      0x00\n        /* \"#utility.yul\":2341:2365   */\n      tag_133\n        /* \"#utility.yul\":2359:2364   */\n      dup3\n        /* \"#utility.yul\":2341:2365   */\n      tag_78\n      jump\t// in\n    tag_133:\n        /* \"#utility.yul\":2330:2365   */\n      swap1\n      pop\n        /* \"#utility.yul\":2267:2371   */\n      swap2\n      swap1\n      pop\n      jump\t// out\n        /* \"#utility.yul\":2377:2509   */\n    tag_85:\n        /* \"#utility.yul\":2470:2502   */\n      tag_135\n        /* \"#utility.yul\":2496:2501   */\n      dup2\n        /* \"#utility.yul\":2470:2502   */\n      tag_84\n      jump\t// in\n    tag_135:\n        /* \"#utility.yul\":2465:2468   */\n      dup3\n        /* \"#utility.yul\":2458:2503   */\n      mstore\n        /* \"#utility.yul\":2377:2509   */\n      pop\n      pop\n      jump\t// out\n        /* \"#utility.yul\":2515:2726   */\n    tag_86:\n        /* \"#utility.yul\":2600:2610   */\n      0x00\n        /* \"#utility.yul\":2621:2683   */\n      tag_137\n        /* \"#utility.yul\":2679:2682   */\n      dup4\n        /* \"#utility.yul\":2671:2677   */\n      dup4\n        /* \"#utility.yul\":2621:2683   */\n      tag_85\n      jump\t// in\n    tag_137:\n        /* \"#utility.yul\":2715:2719   */\n      0x20\n        /* \"#utility.yul\":2710:2713   */\n      dup4\n        /* \"#utility.yul\":2706:2720   */\n      add\n        /* \"#utility.yul\":2692:2720   */\n      swap1\n      pop\n        /* \"#utility.yul\":2515:2726   */\n      swap3\n      swap2\n      pop\n      pop\n      jump\t// out\n        /* \"#utility.yul\":2732:2853   */\n    tag_87:\n        /* \"#utility.yul\":2810:2814   */\n      0x00\n        /* \"#utility.yul\":2842:2846   */\n      0x20\n        /* \"#utility.yul\":2837:2840   */\n      dup3\n        /* \"#utility.yul\":2833:2847   */\n      add\n        /* \"#utility.yul\":2825:2847   */\n      swap1\n      pop\n        /* \"#utility.yul\":2732:2853   */\n      swap2\n      swap1\n      pop\n      jump\t// out\n        /* \"#utility.yul\":2905:3701   */\n    tag_88:\n        /* \"#utility.yul\":3040:3043   */\n      0x00\n        /* \"#utility.yul\":3069:3131   */\n      tag_140\n        /* \"#utility.yul\":3125:3130   */\n      dup3\n        /* \"#utility.yul\":3069:3131   */\n      tag_81\n      jump\t// in\n    tag_140:\n        /* \"#utility.yul\":3147:3241   */\n      tag_141\n        /* \"#utility.yul\":3234:3240   */\n      dup2\n        /* \"#utility.yul\":3229:3232   */\n      dup6\n        /* \"#utility.yul\":3147:3241   */\n      tag_82\n      jump\t// in\n    tag_141:\n        /* \"#utility.yul\":3140:3241   */\n      swap4\n      pop\n        /* \"#utility.yul\":3265:3329   */\n      tag_142\n        /* \"#utility.yul\":3323:3328   */\n      dup4\n        /* \"#utility.yul\":3265:3329   */\n      tag_83\n      jump\t// in\n    tag_142:\n        /* \"#utility.yul\":3352:3359   */\n      dup1\n        /* \"#utility.yul\":3383:3384   */\n      0x00\n        /* \"#utility.yul\":3368:3676   */\n    tag_143:\n        /* \"#utility.yul\":3393:3399   */\n      dup4\n        /* \"#utility.yul\":3390:3391   */\n      dup2\n        /* \"#utility.yul\":3387:3400   */\n      lt\n        /* \"#utility.yul\":3368:3676   */\n      iszero\n      tag_145\n      jumpi\n        /* \"#utility.yul\":3469:3475   */\n      dup2\n        /* \"#utility.yul\":3463:3476   */\n      mload\n        /* \"#utility.yul\":3496:3575   */\n      tag_146\n        /* \"#utility.yul\":3571:3574   */\n      dup9\n        /* \"#utility.yul\":3556:3569   */\n      dup3\n        /* \"#utility.yul\":3496:3575   */\n      tag_86\n      jump\t// in\n    tag_146:\n        /* \"#utility.yul\":3489:3575   */\n      swap8\n      pop\n        /* \"#utility.yul\":3598:3666   */\n      tag_147\n        /* \"#utility.yul\":3659:3665   */\n      dup4\n        /* \"#utility.yul\":3598:3666   */\n      tag_87\n      jump\t// in\n    tag_147:\n        /* \"#utility.yul\":3588:3666   */\n      swap3\n      pop\n        /* \"#utility.yul\":3428:3676   */\n      pop\n        /* \"#utility.yul\":3415:3416   */\n      0x01\n        /* \"#utility.yul\":3412:3413   */\n      dup2\n        /* \"#utility.yul\":3408:3417   */\n      add\n        /* \"#utility.yul\":3403:3417   */\n      swap1\n      pop\n        /* \"#utility.yul\":3368:3676   */\n      jump(tag_143)\n    tag_145:\n        /* \"#utility.yul\":3372:3386   */\n      pop\n        /* \"#utility.yul\":3692:3695   */\n      dup6\n        /* \"#utility.yul\":3685:3695   */\n      swap4\n      pop\n        /* \"#utility.yul\":3045:3701   */\n      pop\n      pop\n      pop\n        /* \"#utility.yul\":2905:3701   */\n      swap3\n      swap2\n      pop\n      pop\n      jump\t// out\n        /* \"#utility.yul\":3707:4112   */\n    tag_25:\n        /* \"#utility.yul\":3866:3870   */\n      0x00\n        /* \"#utility.yul\":3904:3906   */\n      0x20\n        /* \"#utility.yul\":3893:3902   */\n      dup3\n        /* \"#utility.yul\":3889:3907   */\n      add\n        /* \"#utility.yul\":3881:3907   */\n      swap1\n      pop\n        /* \"#utility.yul\":3953:3962   */\n      dup2\n        /* \"#utility.yul\":3947:3951   */\n      dup2\n        /* \"#utility.yul\":3943:3963   */\n      sub\n        /* \"#utility.yul\":3939:3940   */\n      0x00\n        /* \"#utility.yul\":3928:3937   */\n      dup4\n        /* \"#utility.yul\":3924:3941   */\n      add\n        /* \"#utility.yul\":3917:3964   */\n      mstore\n        /* \"#utility.yul\":3981:4105   */\n      tag_149\n        /* \"#utility.yul\":4100:4104   */\n      dup2\n        /* \"#utility.yul\":4091:4097   */\n      dup5\n        /* \"#utility.yul\":3981:4105   */\n      tag_88\n      jump\t// in\n    tag_149:\n        /* \"#utility.yul\":3973:4105   */\n      swap1\n      pop\n        /* \"#utility.yul\":3707:4112   */\n      swap3\n      swap2\n      pop\n      pop\n      jump\t// out\n        /* \"#utility.yul\":4199:4316   */\n    tag_90:\n        /* \"#utility.yul\":4308:4309   */\n      0x00\n        /* \"#utility.yul\":4305:4306   */\n      dup1\n        /* \"#utility.yul\":4298:4310   */\n      revert\n        /* \"#utility.yul\":4445:4522   */\n    tag_92:\n        /* \"#utility.yul\":4482:4489   */\n      0x00\n        /* \"#utility.yul\":4511:4516   */\n      dup2\n        /* \"#utility.yul\":4500:4516   */\n      swap1\n      pop\n        /* \"#utility.yul\":4445:4522   */\n      swap2\n      swap1\n      pop\n      jump\t// out\n        /* \"#utility.yul\":4528:4650   */\n    tag_93:\n        /* \"#utility.yul\":4601:4625   */\n      tag_155\n        /* \"#utility.yul\":4619:4624   */\n      dup2\n        /* \"#utility.yul\":4601:4625   */\n      tag_92\n      jump\t// in\n    tag_155:\n        /* \"#utility.yul\":4594:4599   */\n      dup2\n        /* \"#utility.yul\":4591:4626   */\n      eq\n        /* \"#utility.yul\":4581:4644   */\n      tag_156\n      jumpi\n        /* \"#utility.yul\":4640:4641   */\n      0x00\n        /* \"#utility.yul\":4637:4638   */\n      dup1\n        /* \"#utility.yul\":4630:4642   */\n      revert\n        /* \"#utility.yul\":4581:4644   */\n    tag_156:\n        /* \"#utility.yul\":4528:4650   */\n      pop\n      jump\t// out\n        /* \"#utility.yul\":4656:4795   */\n    tag_94:\n        /* \"#utility.yul\":4702:4707   */\n      0x00\n        /* \"#utility.yul\":4740:4746   */\n      dup2\n        /* \"#utility.yul\":4727:4747   */\n      calldataload\n        /* \"#utility.yul\":4718:4747   */\n      swap1\n      pop\n        /* \"#utility.yul\":4756:4789   */\n      tag_158\n        /* \"#utility.yul\":4783:4788   */\n      dup2\n        /* \"#utility.yul\":4756:4789   */\n      tag_93\n      jump\t// in\n    tag_158:\n        /* \"#utility.yul\":4656:4795   */\n      swap3\n      swap2\n      pop\n      pop\n      jump\t// out\n        /* \"#utility.yul\":4801:5130   */\n    tag_29:\n        /* \"#utility.yul\":4860:4866   */\n      0x00\n        /* \"#utility.yul\":4909:4911   */\n      0x20\n        /* \"#utility.yul\":4897:4906   */\n      dup3\n        /* \"#utility.yul\":4888:4895   */\n      dup5\n        /* \"#utility.yul\":4884:4907   */\n      sub\n        /* \"#utility.yul\":4880:4912   */\n      slt\n        /* \"#utility.yul\":4877:4996   */\n      iszero\n      tag_160\n      jumpi\n        /* \"#utility.yul\":4915:4994   */\n      tag_161\n      tag_90\n      jump\t// in\n    tag_161:\n        /* \"#utility.yul\":4877:4996   */\n    tag_160:\n        /* \"#utility.yul\":5035:5036   */\n      0x00\n        /* \"#utility.yul\":5060:5113   */\n      tag_162\n        /* \"#utility.yul\":5105:5112   */\n      dup5\n        /* \"#utility.yul\":5096:5102   */\n      dup3\n        /* \"#utility.yul\":5085:5094   */\n      dup6\n        /* \"#utility.yul\":5081:5103   */\n      add\n        /* \"#utility.yul\":5060:5113   */\n      tag_94\n      jump\t// in\n    tag_162:\n        /* \"#utility.yul\":5050:5113   */\n      swap2\n      pop\n        /* \"#utility.yul\":5006:5123   */\n      pop\n        /* \"#utility.yul\":4801:5130   */\n      swap3\n      swap2\n      pop\n      pop\n      jump\t// out\n        /* \"#utility.yul\":5136:5278   */\n    tag_95:\n        /* \"#utility.yul\":5239:5271   */\n      tag_164\n        /* \"#utility.yul\":5265:5270   */\n      dup2\n        /* \"#utility.yul\":5239:5271   */\n      tag_84\n      jump\t// in\n    tag_164:\n        /* \"#utility.yul\":5234:5237   */\n      dup3\n        /* \"#utility.yul\":5227:5272   */\n      mstore\n        /* \"#utility.yul\":5136:5278   */\n      pop\n      pop\n      jump\t// out\n        /* \"#utility.yul\":5284:5538   */\n    tag_32:\n        /* \"#utility.yul\":5393:5397   */\n      0x00\n        /* \"#utility.yul\":5431:5433   */\n      0x20\n        /* \"#utility.yul\":5420:5429   */\n      dup3\n        /* \"#utility.yul\":5416:5434   */\n      add\n        /* \"#utility.yul\":5408:5434   */\n      swap1\n      pop\n        /* \"#utility.yul\":5444:5531   */\n      tag_166\n        /* \"#utility.yul\":5528:5529   */\n      0x00\n        /* \"#utility.yul\":5517:5526   */\n      dup4\n        /* \"#utility.yul\":5513:5530   */\n      add\n        /* \"#utility.yul\":5504:5510   */\n      dup5\n        /* \"#utility.yul\":5444:5531   */\n      tag_95\n      jump\t// in\n    tag_166:\n        /* \"#utility.yul\":5284:5538   */\n      swap3\n      swap2\n      pop\n      pop\n      jump\t// out\n        /* \"#utility.yul\":5544:5724   */\n    tag_96:\n        /* \"#utility.yul\":5684:5716   */\n      0x43616e206f6e6c792062652063616c6c6564206279206d616e616765722e0000\n        /* \"#utility.yul\":5680:5681   */\n      0x00\n        /* \"#utility.yul\":5672:5678   */\n      dup3\n        /* \"#utility.yul\":5668:5682   */\n      add\n        /* \"#utility.yul\":5661:5717   */\n      mstore\n        /* \"#utility.yul\":5544:5724   */\n      pop\n      jump\t// out\n        /* \"#utility.yul\":5730:6096   */\n    tag_97:\n        /* \"#utility.yul\":5872:5875   */\n      0x00\n        /* \"#utility.yul\":5893:5960   */\n      tag_169\n        /* \"#utility.yul\":5957:5959   */\n      0x1e\n        /* \"#utility.yul\":5952:5955   */\n      dup4\n        /* \"#utility.yul\":5893:5960   */\n      tag_75\n      jump\t// in\n    tag_169:\n        /* \"#utility.yul\":5886:5960   */\n      swap2\n      pop\n        /* \"#utility.yul\":5969:6062   */\n      tag_170\n        /* \"#utility.yul\":6058:6061   */\n      dup3\n        /* \"#utility.yul\":5969:6062   */\n      tag_96\n      jump\t// in\n    tag_170:\n        /* \"#utility.yul\":6087:6089   */\n      0x20\n        /* \"#utility.yul\":6082:6085   */\n      dup3\n        /* \"#utility.yul\":6078:6090   */\n      add\n        /* \"#utility.yul\":6071:6090   */\n      swap1\n      pop\n        /* \"#utility.yul\":5730:6096   */\n      swap2\n      swap1\n      pop\n      jump\t// out\n        /* \"#utility.yul\":6102:6521   */\n    tag_36:\n        /* \"#utility.yul\":6268:6272   */\n      0x00\n        /* \"#utility.yul\":6306:6308   */\n      0x20\n        /* \"#utility.yul\":6295:6304   */\n      dup3\n        /* \"#utility.yul\":6291:6309   */\n      add\n        /* \"#utility.yul\":6283:6309   */\n      swap1\n      pop\n        /* \"#utility.yul\":6355:6364   */\n      dup2\n        /* \"#utility.yul\":6349:6353   */\n      dup2\n        /* \"#utility.yul\":6345:6365   */\n      sub\n        /* \"#utility.yul\":6341:6342   */\n      0x00\n        /* \"#utility.yul\":6330:6339   */\n      dup4\n        /* \"#utility.yul\":6326:6343   */\n      add\n        /* \"#utility.yul\":6319:6366   */\n      mstore\n        /* \"#utility.yul\":6383:6514   */\n      tag_172\n        /* \"#utility.yul\":6509:6513   */\n      dup2\n        /* \"#utility.yul\":6383:6514   */\n      tag_97\n      jump\t// in\n    tag_172:\n        /* \"#utility.yul\":6375:6514   */\n      swap1\n      pop\n        /* \"#utility.yul\":6102:6521   */\n      swap2\n      swap1\n      pop\n      jump\t// out\n        /* \"#utility.yul\":6527:6704   */\n    tag_98:\n        /* \"#utility.yul\":6667:6696   */\n      0x4d757374206265206174206c65617374203320706c61796572732e0000000000\n        /* \"#utility.yul\":6663:6664   */\n      0x00\n        /* \"#utility.yul\":6655:6661   */\n      dup3\n        /* \"#utility.yul\":6651:6665   */\n      add\n        /* \"#utility.yul\":6644:6697   */\n      mstore\n        /* \"#utility.yul\":6527:6704   */\n      pop\n      jump\t// out\n        /* \"#utility.yul\":6710:7076   */\n    tag_99:\n        /* \"#utility.yul\":6852:6855   */\n      0x00\n        /* \"#utility.yul\":6873:6940   */\n      tag_175\n        /* \"#utility.yul\":6937:6939   */\n      0x1b\n        /* \"#utility.yul\":6932:6935   */\n      dup4\n        /* \"#utility.yul\":6873:6940   */\n      tag_75\n      jump\t// in\n    tag_175:\n        /* \"#utility.yul\":6866:6940   */\n      swap2\n      pop\n        /* \"#utility.yul\":6949:7042   */\n      tag_176\n        /* \"#utility.yul\":7038:7041   */\n      dup3\n        /* \"#utility.yul\":6949:7042   */\n      tag_98\n      jump\t// in\n    tag_176:\n        /* \"#utility.yul\":7067:7069   */\n      0x20\n        /* \"#utility.yul\":7062:7065   */\n      dup3\n        /* \"#utility.yul\":7058:7070   */\n      add\n        /* \"#utility.yul\":7051:7070   */\n      swap1\n      pop\n        /* \"#utility.yul\":6710:7076   */\n      swap2\n      swap1\n      pop\n      jump\t// out\n        /* \"#utility.yul\":7082:7501   */\n    tag_40:\n        /* \"#utility.yul\":7248:7252   */\n      0x00\n        /* \"#utility.yul\":7286:7288   */\n      0x20\n        /* \"#utility.yul\":7275:7284   */\n      dup3\n        /* \"#utility.yul\":7271:7289   */\n      add\n        /* \"#utility.yul\":7263:7289   */\n      swap1\n      pop\n        /* \"#utility.yul\":7335:7344   */\n      dup2\n        /* \"#utility.yul\":7329:7333   */\n      dup2\n        /* \"#utility.yul\":7325:7345   */\n      sub\n        /* \"#utility.yul\":7321:7322   */\n      0x00\n        /* \"#utility.yul\":7310:7319   */\n      dup4\n        /* \"#utility.yul\":7306:7323   */\n      add\n        /* \"#utility.yul\":7299:7346   */\n      mstore\n        /* \"#utility.yul\":7363:7494   */\n      tag_178\n        /* \"#utility.yul\":7489:7493   */\n      dup2\n        /* \"#utility.yul\":7363:7494   */\n      tag_99\n      jump\t// in\n    tag_178:\n        /* \"#utility.yul\":7355:7494   */\n      swap1\n      pop\n        /* \"#utility.yul\":7082:7501   */\n      swap2\n      swap1\n      pop\n      jump\t// out\n        /* \"#utility.yul\":7507:7687   */\n    tag_100:\n        /* \"#utility.yul\":7555:7632   */\n      0x4e487b7100000000000000000000000000000000000000000000000000000000\n        /* \"#utility.yul\":7552:7553   */\n      0x00\n        /* \"#utility.yul\":7545:7633   */\n      mstore\n        /* \"#utility.yul\":7652:7656   */\n      0x12\n        /* \"#utility.yul\":7649:7650   */\n      0x04\n        /* \"#utility.yul\":7642:7657   */\n      mstore\n        /* \"#utility.yul\":7676:7680   */\n      0x24\n        /* \"#utility.yul\":7673:7674   */\n      0x00\n        /* \"#utility.yul\":7666:7681   */\n      revert\n        /* \"#utility.yul\":7693:7869   */\n    tag_44:\n        /* \"#utility.yul\":7725:7726   */\n      0x00\n        /* \"#utility.yul\":7742:7762   */\n      tag_181\n        /* \"#utility.yul\":7760:7761   */\n      dup3\n        /* \"#utility.yul\":7742:7762   */\n      tag_92\n      jump\t// in\n    tag_181:\n        /* \"#utility.yul\":7737:7762   */\n      swap2\n      pop\n        /* \"#utility.yul\":7776:7796   */\n      tag_182\n        /* \"#utility.yul\":7794:7795   */\n      dup4\n        /* \"#utility.yul\":7776:7796   */\n      tag_92\n      jump\t// in\n    tag_182:\n        /* \"#utility.yul\":7771:7796   */\n      swap3\n      pop\n        /* \"#utility.yul\":7815:7816   */\n      dup3\n        /* \"#utility.yul\":7805:7840   */\n      tag_183\n      jumpi\n        /* \"#utility.yul\":7820:7838   */\n      tag_184\n      tag_100\n      jump\t// in\n    tag_184:\n        /* \"#utility.yul\":7805:7840   */\n    tag_183:\n        /* \"#utility.yul\":7861:7862   */\n      dup3\n        /* \"#utility.yul\":7858:7859   */\n      dup3\n        /* \"#utility.yul\":7854:7863   */\n      mod\n        /* \"#utility.yul\":7849:7863   */\n      swap1\n      pop\n        /* \"#utility.yul\":7693:7869   */\n      swap3\n      swap2\n      pop\n      pop\n      jump\t// out\n        /* \"#utility.yul\":7875:8055   */\n    tag_47:\n        /* \"#utility.yul\":7923:8000   */\n      0x4e487b7100000000000000000000000000000000000000000000000000000000\n        /* \"#utility.yul\":7920:7921   */\n      0x00\n        /* \"#utility.yul\":7913:8001   */\n      mstore\n        /* \"#utility.yul\":8020:8024   */\n      0x32\n        /* \"#utility.yul\":8017:8018   */\n      0x04\n        /* \"#utility.yul\":8010:8025   */\n      mstore\n        /* \"#utility.yul\":8044:8048   */\n      0x24\n        /* \"#utility.yul\":8041:8042   */\n      0x00\n        /* \"#utility.yul\":8034:8049   */\n      revert\n        /* \"#utility.yul\":8061:8241   */\n    tag_53:\n        /* \"#utility.yul\":8109:8186   */\n      0x4e487b7100000000000000000000000000000000000000000000000000000000\n        /* \"#utility.yul\":8106:8107   */\n      0x00\n        /* \"#utility.yul\":8099:8187   */\n      mstore\n        /* \"#utility.yul\":8206:8210   */\n      0x41\n        /* \"#utility.yul\":8203:8204   */\n      0x04\n        /* \"#utility.yul\":8196:8211   */\n      mstore\n        /* \"#utility.yul\":8230:8234   */\n      0x24\n        /* \"#utility.yul\":8227:8228   */\n      0x00\n        /* \"#utility.yul\":8220:8235   */\n      revert\n        /* \"#utility.yul\":8247:8326   */\n    tag_101:\n        /* \"#utility.yul\":8286:8293   */\n      0x00\n        /* \"#utility.yul\":8315:8320   */\n      dup2\n        /* \"#utility.yul\":8304:8320   */\n      swap1\n      pop\n        /* \"#utility.yul\":8247:8326   */\n      swap2\n      swap1\n      pop\n      jump\t// out\n        /* \"#utility.yul\":8332:8489   */\n    tag_102:\n        /* \"#utility.yul\":8437:8482   */\n      tag_189\n        /* \"#utility.yul\":8457:8481   */\n      tag_190\n        /* \"#utility.yul\":8475:8480   */\n      dup3\n        /* \"#utility.yul\":8457:8481   */\n      tag_92\n      jump\t// in\n    tag_190:\n        /* \"#utility.yul\":8437:8482   */\n      tag_101\n      jump\t// in\n    tag_189:\n        /* \"#utility.yul\":8432:8435   */\n      dup3\n        /* \"#utility.yul\":8425:8483   */\n      mstore\n        /* \"#utility.yul\":8332:8489   */\n      pop\n      pop\n      jump\t// out\n        /* \"#utility.yul\":8495:8614   */\n    tag_103:\n        /* \"#utility.yul\":8567:8573   */\n      0x00\n        /* \"#utility.yul\":8601:8606   */\n      dup2\n        /* \"#utility.yul\":8595:8607   */\n      sload\n        /* \"#utility.yul\":8585:8607   */\n      swap1\n      pop\n        /* \"#utility.yul\":8495:8614   */\n      swap2\n      swap1\n      pop\n      jump\t// out\n        /* \"#utility.yul\":8620:8791   */\n    tag_104:\n        /* \"#utility.yul\":8745:8756   */\n      0x00\n        /* \"#utility.yul\":8782:8785   */\n      dup2\n        /* \"#utility.yul\":8767:8785   */\n      swap1\n      pop\n        /* \"#utility.yul\":8620:8791   */\n      swap3\n      swap2\n      pop\n      pop\n      jump\t// out\n        /* \"#utility.yul\":8797:8961   */\n    tag_105:\n        /* \"#utility.yul\":8869:8873   */\n      0x00\n        /* \"#utility.yul\":8892:8895   */\n      dup2\n        /* \"#utility.yul\":8884:8895   */\n      swap1\n      pop\n        /* \"#utility.yul\":8915:8918   */\n      dup2\n        /* \"#utility.yul\":8912:8913   */\n      0x00\n        /* \"#utility.yul\":8905:8919   */\n      mstore\n        /* \"#utility.yul\":8949:8953   */\n      0x20\n        /* \"#utility.yul\":8946:8947   */\n      0x00\n        /* \"#utility.yul\":8936:8954   */\n      keccak256\n        /* \"#utility.yul\":8928:8954   */\n      swap1\n      pop\n        /* \"#utility.yul\":8797:8961   */\n      swap2\n      swap1\n      pop\n      jump\t// out\n        /* \"#utility.yul\":8967:9107   */\n    tag_106:\n        /* \"#utility.yul\":9068:9100   */\n      tag_195\n        /* \"#utility.yul\":9094:9099   */\n      dup2\n        /* \"#utility.yul\":9068:9100   */\n      tag_84\n      jump\t// in\n    tag_195:\n        /* \"#utility.yul\":9063:9066   */\n      dup3\n        /* \"#utility.yul\":9056:9101   */\n      mstore\n        /* \"#utility.yul\":8967:9107   */\n      pop\n      pop\n      jump\t// out\n        /* \"#utility.yul\":9113:9340   */\n    tag_107:\n        /* \"#utility.yul\":9206:9216   */\n      0x00\n        /* \"#utility.yul\":9227:9297   */\n      tag_197\n        /* \"#utility.yul\":9293:9296   */\n      dup4\n        /* \"#utility.yul\":9285:9291   */\n      dup4\n        /* \"#utility.yul\":9227:9297   */\n      tag_106\n      jump\t// in\n    tag_197:\n        /* \"#utility.yul\":9329:9333   */\n      0x20\n        /* \"#utility.yul\":9324:9327   */\n      dup4\n        /* \"#utility.yul\":9320:9334   */\n      add\n        /* \"#utility.yul\":9306:9334   */\n      swap1\n      pop\n        /* \"#utility.yul\":9113:9340   */\n      swap3\n      swap2\n      pop\n      pop\n      jump\t// out\n        /* \"#utility.yul\":9346:9448   */\n    tag_108:\n        /* \"#utility.yul\":9388:9396   */\n      0x00\n        /* \"#utility.yul\":9435:9440   */\n      dup2\n        /* \"#utility.yul\":9432:9433   */\n      0x00\n        /* \"#utility.yul\":9428:9441   */\n      shr\n        /* \"#utility.yul\":9407:9441   */\n      swap1\n      pop\n        /* \"#utility.yul\":9346:9448   */\n      swap2\n      swap1\n      pop\n      jump\t// out\n        /* \"#utility.yul\":9454:9601   */\n    tag_109:\n        /* \"#utility.yul\":9512:9519   */\n      0x00\n        /* \"#utility.yul\":9552:9594   */\n      0xffffffffffffffffffffffffffffffffffffffff\n        /* \"#utility.yul\":9545:9550   */\n      dup3\n        /* \"#utility.yul\":9541:9595   */\n      and\n        /* \"#utility.yul\":9530:9595   */\n      swap1\n      pop\n        /* \"#utility.yul\":9454:9601   */\n      swap2\n      swap1\n      pop\n      jump\t// out\n        /* \"#utility.yul\":9607:9789   */\n    tag_110:\n        /* \"#utility.yul\":9684:9689   */\n      0x00\n        /* \"#utility.yul\":9709:9783   */\n      tag_201\n        /* \"#utility.yul\":9748:9782   */\n      tag_202\n        /* \"#utility.yul\":9771:9781   */\n      dup4\n        /* \"#utility.yul\":9748:9782   */\n      tag_108\n      jump\t// in\n    tag_202:\n        /* \"#utility.yul\":9709:9783   */\n      tag_109\n      jump\t// in\n    tag_201:\n        /* \"#utility.yul\":9700:9783   */\n      swap1\n      pop\n        /* \"#utility.yul\":9607:9789   */\n      swap2\n      swap1\n      pop\n      jump\t// out\n        /* \"#utility.yul\":9795:9955   */\n    tag_111:\n        /* \"#utility.yul\":9858:9863   */\n      0x00\n        /* \"#utility.yul\":9883:9948   */\n      tag_204\n        /* \"#utility.yul\":9942:9946   */\n      dup3\n        /* \"#utility.yul\":9936:9947   */\n      sload\n        /* \"#utility.yul\":9883:9948   */\n      tag_110\n      jump\t// in\n    tag_204:\n        /* \"#utility.yul\":9874:9948   */\n      swap1\n      pop\n        /* \"#utility.yul\":9795:9955   */\n      swap2\n      swap1\n      pop\n      jump\t// out\n        /* \"#utility.yul\":9961:10079   */\n    tag_112:\n        /* \"#utility.yul\":10036:10040   */\n      0x00\n        /* \"#utility.yul\":10068:10072   */\n      0x01\n        /* \"#utility.yul\":10063:10066   */\n      dup3\n        /* \"#utility.yul\":10059:10073   */\n      add\n        /* \"#utility.yul\":10051:10073   */\n      swap1\n      pop\n        /* \"#utility.yul\":9961:10079   */\n      swap2\n      swap1\n      pop\n      jump\t// out\n        /* \"#utility.yul\":10131:10998   */\n    tag_113:\n        /* \"#utility.yul\":10281:10284   */\n      0x00\n        /* \"#utility.yul\":10310:10369   */\n      tag_207\n        /* \"#utility.yul\":10363:10368   */\n      dup3\n        /* \"#utility.yul\":10310:10369   */\n      tag_103\n      jump\t// in\n    tag_207:\n        /* \"#utility.yul\":10385:10497   */\n      tag_208\n        /* \"#utility.yul\":10490:10496   */\n      dup2\n        /* \"#utility.yul\":10485:10488   */\n      dup6\n        /* \"#utility.yul\":10385:10497   */\n      tag_104\n      jump\t// in\n    tag_208:\n        /* \"#utility.yul\":10378:10497   */\n      swap4\n      pop\n        /* \"#utility.yul\":10521:10582   */\n      tag_209\n        /* \"#utility.yul\":10576:10581   */\n      dup4\n        /* \"#utility.yul\":10521:10582   */\n      tag_105\n      jump\t// in\n    tag_209:\n        /* \"#utility.yul\":10605:10612   */\n      dup1\n        /* \"#utility.yul\":10636:10637   */\n      0x00\n        /* \"#utility.yul\":10621:10973   */\n    tag_210:\n        /* \"#utility.yul\":10646:10652   */\n      dup4\n        /* \"#utility.yul\":10643:10644   */\n      dup2\n        /* \"#utility.yul\":10640:10653   */\n      lt\n        /* \"#utility.yul\":10621:10973   */\n      iszero\n      tag_212\n      jumpi\n        /* \"#utility.yul\":10716:10768   */\n      tag_213\n        /* \"#utility.yul\":10761:10767   */\n      dup3\n        /* \"#utility.yul\":10716:10768   */\n      tag_111\n      jump\t// in\n    tag_213:\n        /* \"#utility.yul\":10788:10875   */\n      tag_214\n        /* \"#utility.yul\":10871:10874   */\n      dup9\n        /* \"#utility.yul\":10856:10869   */\n      dup3\n        /* \"#utility.yul\":10788:10875   */\n      tag_107\n      jump\t// in\n    tag_214:\n        /* \"#utility.yul\":10781:10875   */\n      swap8\n      pop\n        /* \"#utility.yul\":10898:10963   */\n      tag_215\n        /* \"#utility.yul\":10956:10962   */\n      dup4\n        /* \"#utility.yul\":10898:10963   */\n      tag_112\n      jump\t// in\n    tag_215:\n        /* \"#utility.yul\":10888:10963   */\n      swap3\n      pop\n        /* \"#utility.yul\":10681:10973   */\n      pop\n        /* \"#utility.yul\":10668:10669   */\n      0x01\n        /* \"#utility.yul\":10665:10666   */\n      dup2\n        /* \"#utility.yul\":10661:10670   */\n      add\n        /* \"#utility.yul\":10656:10670   */\n      swap1\n      pop\n        /* \"#utility.yul\":10621:10973   */\n      jump(tag_210)\n    tag_212:\n        /* \"#utility.yul\":10625:10639   */\n      pop\n        /* \"#utility.yul\":10989:10992   */\n      dup6\n        /* \"#utility.yul\":10982:10992   */\n      swap4\n      pop\n        /* \"#utility.yul\":10286:10998   */\n      pop\n      pop\n      pop\n        /* \"#utility.yul\":10131:10998   */\n      swap3\n      swap2\n      pop\n      pop\n      jump\t// out\n        /* \"#utility.yul\":11004:11647   */\n    tag_67:\n        /* \"#utility.yul\":11235:11238   */\n      0x00\n        /* \"#utility.yul\":11250:11325   */\n      tag_217\n        /* \"#utility.yul\":11321:11324   */\n      dup3\n        /* \"#utility.yul\":11312:11318   */\n      dup7\n        /* \"#utility.yul\":11250:11325   */\n      tag_102\n      jump\t// in\n    tag_217:\n        /* \"#utility.yul\":11350:11352   */\n      0x20\n        /* \"#utility.yul\":11345:11348   */\n      dup3\n        /* \"#utility.yul\":11341:11353   */\n      add\n        /* \"#utility.yul\":11334:11353   */\n      swap2\n      pop\n        /* \"#utility.yul\":11363:11438   */\n      tag_218\n        /* \"#utility.yul\":11434:11437   */\n      dup3\n        /* \"#utility.yul\":11425:11431   */\n      dup6\n        /* \"#utility.yul\":11363:11438   */\n      tag_102\n      jump\t// in\n    tag_218:\n        /* \"#utility.yul\":11463:11465   */\n      0x20\n        /* \"#utility.yul\":11458:11461   */\n      dup3\n        /* \"#utility.yul\":11454:11466   */\n      add\n        /* \"#utility.yul\":11447:11466   */\n      swap2\n      pop\n        /* \"#utility.yul\":11483:11621   */\n      tag_219\n        /* \"#utility.yul\":11617:11620   */\n      dup3\n        /* \"#utility.yul\":11608:11614   */\n      dup5\n        /* \"#utility.yul\":11483:11621   */\n      tag_113\n      jump\t// in\n    tag_219:\n        /* \"#utility.yul\":11476:11621   */\n      swap2\n      pop\n        /* \"#utility.yul\":11638:11641   */\n      dup2\n        /* \"#utility.yul\":11631:11641   */\n      swap1\n      pop\n        /* \"#utility.yul\":11004:11647   */\n      swap5\n      swap4\n      pop\n      pop\n      pop\n      pop\n      jump\t// out\n\n    auxdata: 0xa264697066735822122035b3c87f49ec64f9e8297461cf9867b54e70623580ed138848652417e8aefa3b64736f6c634300081a0033\n}\n",
				"bytecode": {
					"linkReferences": {},
					"object": "6080604052348015600e575f80fd5b50335f806101000a81548173ffffffffffffffffffffffffffffffffffffffff021916908373ffffffffffffffffffffffffffffffffffffffff160217905550610b4c8061005b5f395ff3fe608060405260043610610042575f3560e01c8063481c6a75146100f65780635d495aea146101205780638b5b9ccc14610136578063f71d96cb14610160576100f2565b366100f25767016345785d8a00003414610091576040517f08c379a00000000000000000000000000000000000000000000000000000000081526004016100889061063f565b60405180910390fd5b600133908060018154018082558091505060019003905f5260205f20015f9091909190916101000a81548173ffffffffffffffffffffffffffffffffffffffff021916908373ffffffffffffffffffffffffffffffffffffffff1602179055005b5f80fd5b348015610101575f80fd5b5061010a61019c565b604051610117919061069c565b60405180910390f35b34801561012b575f80fd5b506101346101bf565b005b348015610141575f80fd5b5061014a610396565b604051610157919061077d565b60405180910390f35b34801561016b575f80fd5b50610186600480360381019061018191906107d4565b6104ae565b604051610193919061080e565b60405180910390f35b5f8054906101000a900473ffffffffffffffffffffffffffffffffffffffff1681565b5f8054906101000a900473ffffffffffffffffffffffffffffffffffffffff1673ffffffffffffffffffffffffffffffffffffffff163373ffffffffffffffffffffffffffffffffffffffff161461024c576040517f08c379a000000000000000000000000000000000000000000000000000000000815260040161024390610871565b60405180910390fd5b60036001805490501015610295576040517f08c379a000000000000000000000000000000000000000000000000000000000815260040161028c906108d9565b60405180910390fd5b5f6001805490506102a46104e9565b6102ae9190610924565b90505f600182815481106102c5576102c4610954565b5b905f5260205f20015f9054906101000a900473ffffffffffffffffffffffffffffffffffffffff1690508073ffffffffffffffffffffffffffffffffffffffff166108fc4790811502906040515f60405180830381858888f19350505050158015610332573d5f803e3d5ffd5b505f67ffffffffffffffff81111561034d5761034c610981565b5b60405190808252806020026020018201604052801561037b5781602001602082028036833780820191505090505b506001908051906020019061039192919061051d565b505050565b60605f8054906101000a900473ffffffffffffffffffffffffffffffffffffffff1673ffffffffffffffffffffffffffffffffffffffff163373ffffffffffffffffffffffffffffffffffffffff1614610425576040517f08c379a000000000000000000000000000000000000000000000000000000000815260040161041c90610871565b60405180910390fd5b60018054806020026020016040519081016040528092919081815260200182805480156104a457602002820191905f5260205f20905b815f9054906101000a900473ffffffffffffffffffffffffffffffffffffffff1673ffffffffffffffffffffffffffffffffffffffff168152602001906001019080831161045b575b5050505050905090565b600181815481106104bd575f80fd5b905f5260205f20015f915054906101000a900473ffffffffffffffffffffffffffffffffffffffff1681565b5f4442600160405160200161050093929190610ade565b604051602081830303815290604052805190602001205f1c905090565b828054828255905f5260205f20908101928215610593579160200282015b82811115610592578251825f6101000a81548173ffffffffffffffffffffffffffffffffffffffff021916908373ffffffffffffffffffffffffffffffffffffffff1602179055509160200191906001019061053b565b5b5090506105a091906105a4565b5090565b5b808211156105bb575f815f9055506001016105a5565b5090565b5f82825260208201905092915050565b7f4d75737420626520302e303145544820746f20656e74657220746865206c6f745f8201527f746572792e000000000000000000000000000000000000000000000000000000602082015250565b5f6106296025836105bf565b9150610634826105cf565b604082019050919050565b5f6020820190508181035f8301526106568161061d565b9050919050565b5f73ffffffffffffffffffffffffffffffffffffffff82169050919050565b5f6106868261065d565b9050919050565b6106968161067c565b82525050565b5f6020820190506106af5f83018461068d565b92915050565b5f81519050919050565b5f82825260208201905092915050565b5f819050602082019050919050565b5f6106e88261065d565b9050919050565b6106f8816106de565b82525050565b5f61070983836106ef565b60208301905092915050565b5f602082019050919050565b5f61072b826106b5565b61073581856106bf565b9350610740836106cf565b805f5b8381101561077057815161075788826106fe565b975061076283610715565b925050600181019050610743565b5085935050505092915050565b5f6020820190508181035f8301526107958184610721565b905092915050565b5f80fd5b5f819050919050565b6107b3816107a1565b81146107bd575f80fd5b50565b5f813590506107ce816107aa565b92915050565b5f602082840312156107e9576107e861079d565b5b5f6107f6848285016107c0565b91505092915050565b610808816106de565b82525050565b5f6020820190506108215f8301846107ff565b92915050565b7f43616e206f6e6c792062652063616c6c6564206279206d616e616765722e00005f82015250565b5f61085b601e836105bf565b915061086682610827565b602082019050919050565b5f6020820190508181035f8301526108888161084f565b9050919050565b7f4d757374206265206174206c65617374203320706c61796572732e00000000005f82015250565b5f6108c3601b836105bf565b91506108ce8261088f565b602082019050919050565b5f6020820190508181035f8301526108f0816108b7565b9050919050565b7f4e487b71000000000000000000000000000000000000000000000000000000005f52601260045260245ffd5b5f61092e826107a1565b9150610939836107a1565b925082610949576109486108f7565b5b828206905092915050565b7f4e487b71000000000000000000000000000000000000000000000000000000005f52603260045260245ffd5b7f4e487b71000000000000000000000000000000000000000000000000000000005f52604160045260245ffd5b5f819050919050565b6109c86109c3826107a1565b6109ae565b82525050565b5f81549050919050565b5f81905092915050565b5f819050815f5260205f209050919050565b6109fd816106de565b82525050565b5f610a0e83836109f4565b60208301905092915050565b5f815f1c9050919050565b5f73ffffffffffffffffffffffffffffffffffffffff82169050919050565b5f610a56610a5183610a1a565b610a25565b9050919050565b5f610a688254610a44565b9050919050565b5f600182019050919050565b5f610a85826109ce565b610a8f81856109d8565b9350610a9a836109e2565b805f5b83811015610ad157610aae82610a5d565b610ab88882610a03565b9750610ac383610a6f565b925050600181019050610a9d565b5085935050505092915050565b5f610ae982866109b7565b602082019150610af982856109b7565b602082019150610b098284610a7b565b915081905094935050505056fea264697066735822122035b3c87f49ec64f9e8297461cf9867b54e70623580ed138848652417e8aefa3b64736f6c634300081a0033",
					"opcodes": "PUSH1 0x80 PUSH1 0x40 MSTORE CALLVALUE DUP1 ISZERO PUSH1 0xE JUMPI PUSH0 DUP1 REVERT JUMPDEST POP CALLER PUSH0 DUP1 PUSH2 0x100 EXP DUP2 SLOAD DUP2 PUSH20 0xFFFFFFFFFFFFFFFFFFFFFFFFFFFFFFFFFFFFFFFF MUL NOT AND SWAP1 DUP4 PUSH20 0xFFFFFFFFFFFFFFFFFFFFFFFFFFFFFFFFFFFFFFFF AND MUL OR SWAP1 SSTORE POP PUSH2 0xB4C DUP1 PUSH2 0x5B PUSH0 CODECOPY PUSH0 RETURN INVALID PUSH1 0x80 PUSH1 0x40 MSTORE PUSH1 0x4 CALLDATASIZE LT PUSH2 0x42 JUMPI PUSH0 CALLDATALOAD PUSH1 0xE0 SHR DUP1 PUSH4 0x481C6A75 EQ PUSH2 0xF6 JUMPI DUP1 PUSH4 0x5D495AEA EQ PUSH2 0x120 JUMPI DUP1 PUSH4 0x8B5B9CCC EQ PUSH2 0x136 JUMPI DUP1 PUSH4 0xF71D96CB EQ PUSH2 0x160 JUMPI PUSH2 0xF2 JUMP JUMPDEST CALLDATASIZE PUSH2 0xF2 JUMPI PUSH8 0x16345785D8A0000 CALLVALUE EQ PUSH2 0x91 JUMPI PUSH1 0x40 MLOAD PUSH32 0x8C379A000000000000000000000000000000000000000000000000000000000 DUP2 MSTORE PUSH1 0x4 ADD PUSH2 0x88 SWAP1 PUSH2 0x63F JUMP JUMPDEST PUSH1 0x40 MLOAD DUP1 SWAP2 SUB SWAP1 REVERT JUMPDEST PUSH1 0x1 CALLER SWAP1 DUP1 PUSH1 0x1 DUP2 SLOAD ADD DUP1 DUP3 SSTORE DUP1 SWAP2 POP POP PUSH1 0x1 SWAP1 SUB SWAP1 PUSH0 MSTORE PUSH1 0x20 PUSH0 KECCAK256 ADD PUSH0 SWAP1 SWAP2 SWAP1 SWAP2 SWAP1 SWAP2 PUSH2 0x100 EXP DUP2 SLOAD DUP2 PUSH20 0xFFFFFFFFFFFFFFFFFFFFFFFFFFFFFFFFFFFFFFFF MUL NOT AND SWAP1 DUP4 PUSH20 0xFFFFFFFFFFFFFFFFFFFFFFFFFFFFFFFFFFFFFFFF AND MUL OR SWAP1 SSTORE STOP JUMPDEST PUSH0 DUP1 REVERT JUMPDEST CALLVALUE DUP1 ISZERO PUSH2 0x101 JUMPI PUSH0 DUP1 REVERT JUMPDEST POP PUSH2 0x10A PUSH2 0x19C JUMP JUMPDEST PUSH1 0x40 MLOAD PUSH2 0x117 SWAP2 SWAP1 PUSH2 0x69C JUMP JUMPDEST PUSH1 0x40 MLOAD DUP1 SWAP2 SUB SWAP1 RETURN JUMPDEST CALLVALUE DUP1 ISZERO PUSH2 0x12B JUMPI PUSH0 DUP1 REVERT JUMPDEST POP PUSH2 0x134 PUSH2 0x1BF JUMP JUMPDEST STOP JUMPDEST CALLVALUE DUP1 ISZERO PUSH2 0x141 JUMPI PUSH0 DUP1 REVERT JUMPDEST POP PUSH2 0x14A PUSH2 0x396 JUMP JUMPDEST PUSH1 0x40 MLOAD PUSH2 0x157 SWAP2 SWAP1 PUSH2 0x77D JUMP JUMPDEST PUSH1 0x40 MLOAD DUP1 SWAP2 SUB SWAP1 RETURN JUMPDEST CALLVALUE DUP1 ISZERO PUSH2 0x16B JUMPI PUSH0 DUP1 REVERT JUMPDEST POP PUSH2 0x186 PUSH1 0x4 DUP1 CALLDATASIZE SUB DUP2 ADD SWAP1 PUSH2 0x181 SWAP2 SWAP1 PUSH2 0x7D4 JUMP JUMPDEST PUSH2 0x4AE JUMP JUMPDEST PUSH1 0x40 MLOAD PUSH2 0x193 SWAP2 SWAP1 PUSH2 0x80E JUMP JUMPDEST PUSH1 0x40 MLOAD DUP1 SWAP2 SUB SWAP1 RETURN JUMPDEST PUSH0 DUP1 SLOAD SWAP1 PUSH2 0x100 EXP SWAP1 DIV PUSH20 0xFFFFFFFFFFFFFFFFFFFFFFFFFFFFFFFFFFFFFFFF AND DUP2 JUMP JUMPDEST PUSH0 DUP1 SLOAD SWAP1 PUSH2 0x100 EXP SWAP1 DIV PUSH20 0xFFFFFFFFFFFFFFFFFFFFFFFFFFFFFFFFFFFFFFFF AND PUSH20 0xFFFFFFFFFFFFFFFFFFFFFFFFFFFFFFFFFFFFFFFF AND CALLER PUSH20 0xFFFFFFFFFFFFFFFFFFFFFFFFFFFFFFFFFFFFFFFF AND EQ PUSH2 0x24C JUMPI PUSH1 0x40 MLOAD PUSH32 0x8C379A000000000000000000000000000000000000000000000000000000000 DUP2 MSTORE PUSH1 0x4 ADD PUSH2 0x243 SWAP1 PUSH2 0x871 JUMP JUMPDEST PUSH1 0x40 MLOAD DUP1 SWAP2 SUB SWAP1 REVERT JUMPDEST PUSH1 0x3 PUSH1 0x1 DUP1 SLOAD SWAP1 POP LT ISZERO PUSH2 0x295 JUMPI PUSH1 0x40 MLOAD PUSH32 0x8C379A000000000000000000000000000000000000000000000000000000000 DUP2 MSTORE PUSH1 0x4 ADD PUSH2 0x28C SWAP1 PUSH2 0x8D9 JUMP JUMPDEST PUSH1 0x40 MLOAD DUP1 SWAP2 SUB SWAP1 REVERT JUMPDEST PUSH0 PUSH1 0x1 DUP1 SLOAD SWAP1 POP PUSH2 0x2A4 PUSH2 0x4E9 JUMP JUMPDEST PUSH2 0x2AE SWAP2 SWAP1 PUSH2 0x924 JUMP JUMPDEST SWAP1 POP PUSH0 PUSH1 0x1 DUP3 DUP2 SLOAD DUP2 LT PUSH2 0x2C5 JUMPI PUSH2 0x2C4 PUSH2 0x954 JUMP JUMPDEST JUMPDEST SWAP1 PUSH0 MSTORE PUSH1 0x20 PUSH0 KECCAK256 ADD PUSH0 SWAP1 SLOAD SWAP1 PUSH2 0x100 EXP SWAP1 DIV PUSH20 0xFFFFFFFFFFFFFFFFFFFFFFFFFFFFFFFFFFFFFFFF AND SWAP1 POP DUP1 PUSH20 0xFFFFFFFFFFFFFFFFFFFFFFFFFFFFFFFFFFFFFFFF AND PUSH2 0x8FC SELFBALANCE SWAP1 DUP2 ISZERO MUL SWAP1 PUSH1 0x40 MLOAD PUSH0 PUSH1 0x40 MLOAD DUP1 DUP4 SUB DUP2 DUP6 DUP9 DUP9 CALL SWAP4 POP POP POP POP ISZERO DUP1 ISZERO PUSH2 0x332 JUMPI RETURNDATASIZE PUSH0 DUP1 RETURNDATACOPY RETURNDATASIZE PUSH0 REVERT JUMPDEST POP PUSH0 PUSH8 0xFFFFFFFFFFFFFFFF DUP2 GT ISZERO PUSH2 0x34D JUMPI PUSH2 0x34C PUSH2 0x981 JUMP JUMPDEST JUMPDEST PUSH1 0x40 MLOAD SWAP1 DUP1 DUP3 MSTORE DUP1 PUSH1 0x20 MUL PUSH1 0x20 ADD DUP3 ADD PUSH1 0x40 MSTORE DUP1 ISZERO PUSH2 0x37B JUMPI DUP2 PUSH1 0x20 ADD PUSH1 0x20 DUP3 MUL DUP1 CALLDATASIZE DUP4 CALLDATACOPY DUP1 DUP3 ADD SWAP2 POP POP SWAP1 POP JUMPDEST POP PUSH1 0x1 SWAP1 DUP1 MLOAD SWAP1 PUSH1 0x20 ADD SWAP1 PUSH2 0x391 SWAP3 SWAP2 SWAP1 PUSH2 0x51D JUMP JUMPDEST POP POP POP JUMP JUMPDEST PUSH1 0x60 PUSH0 DUP1 SLOAD SWAP1 PUSH2 0x100 EXP SWAP1 DIV PUSH20 0xFFFFFFFFFFFFFFFFFFFFFFFFFFFFFFFFFFFFFFFF AND PUSH20 0xFFFFFFFFFFFFFFFFFFFFFFFFFFFFFFFFFFFFFFFF AND CALLER PUSH20 0xFFFFFFFFFFFFFFFFFFFFFFFFFFFFFFFFFFFFFFFF AND EQ PUSH2 0x425 JUMPI PUSH1 0x40 MLOAD PUSH32 0x8C379A000000000000000000000000000000000000000000000000000000000 DUP2 MSTORE PUSH1 0x4 ADD PUSH2 0x41C SWAP1 PUSH2 0x871 JUMP JUMPDEST PUSH1 0x40 MLOAD DUP1 SWAP2 SUB SWAP1 REVERT JUMPDEST PUSH1 0x1 DUP1 SLOAD DUP1 PUSH1 0x20 MUL PUSH1 0x20 ADD PUSH1 0x40 MLOAD SWAP1 DUP2 ADD PUSH1 0x40 MSTORE DUP1 SWAP3 SWAP2 SWAP1 DUP2 DUP2 MSTORE PUSH1 0x20 ADD DUP3 DUP1 SLOAD DUP1 ISZERO PUSH2 0x4A4 JUMPI PUSH1 0x20 MUL DUP3 ADD SWAP2 SWAP1 PUSH0 MSTORE PUSH1 0x20 PUSH0 KECCAK256 SWAP1 JUMPDEST DUP2 PUSH0 SWAP1 SLOAD SWAP1 PUSH2 0x100 EXP SWAP1 DIV PUSH20 0xFFFFFFFFFFFFFFFFFFFFFFFFFFFFFFFFFFFFFFFF AND PUSH20 0xFFFFFFFFFFFFFFFFFFFFFFFFFFFFFFFFFFFFFFFF AND DUP2 MSTORE PUSH1 0x20 ADD SWAP1 PUSH1 0x1 ADD SWAP1 DUP1 DUP4 GT PUSH2 0x45B JUMPI JUMPDEST POP POP POP POP POP SWAP1 POP SWAP1 JUMP JUMPDEST PUSH1 0x1 DUP2 DUP2 SLOAD DUP2 LT PUSH2 0x4BD JUMPI PUSH0 DUP1 REVERT JUMPDEST SWAP1 PUSH0 MSTORE PUSH1 0x20 PUSH0 KECCAK256 ADD PUSH0 SWAP2 POP SLOAD SWAP1 PUSH2 0x100 EXP SWAP1 DIV PUSH20 0xFFFFFFFFFFFFFFFFFFFFFFFFFFFFFFFFFFFFFFFF AND DUP2 JUMP JUMPDEST PUSH0 PREVRANDAO TIMESTAMP PUSH1 0x1 PUSH1 0x40 MLOAD PUSH1 0x20 ADD PUSH2 0x500 SWAP4 SWAP3 SWAP2 SWAP1 PUSH2 0xADE JUMP JUMPDEST PUSH1 0x40 MLOAD PUSH1 0x20 DUP2 DUP4 SUB SUB DUP2 MSTORE SWAP1 PUSH1 0x40 MSTORE DUP1 MLOAD SWAP1 PUSH1 0x20 ADD KECCAK256 PUSH0 SHR SWAP1 POP SWAP1 JUMP JUMPDEST DUP3 DUP1 SLOAD DUP3 DUP3 SSTORE SWAP1 PUSH0 MSTORE PUSH1 0x20 PUSH0 KECCAK256 SWAP1 DUP2 ADD SWAP3 DUP3 ISZERO PUSH2 0x593 JUMPI SWAP2 PUSH1 0x20 MUL DUP3 ADD JUMPDEST DUP3 DUP2 GT ISZERO PUSH2 0x592 JUMPI DUP3 MLOAD DUP3 PUSH0 PUSH2 0x100 EXP DUP2 SLOAD DUP2 PUSH20 0xFFFFFFFFFFFFFFFFFFFFFFFFFFFFFFFFFFFFFFFF MUL NOT AND SWAP1 DUP4 PUSH20 0xFFFFFFFFFFFFFFFFFFFFFFFFFFFFFFFFFFFFFFFF AND MUL OR SWAP1 SSTORE POP SWAP2 PUSH1 0x20 ADD SWAP2 SWAP1 PUSH1 0x1 ADD SWAP1 PUSH2 0x53B JUMP JUMPDEST JUMPDEST POP SWAP1 POP PUSH2 0x5A0 SWAP2 SWAP1 PUSH2 0x5A4 JUMP JUMPDEST POP SWAP1 JUMP JUMPDEST JUMPDEST DUP1 DUP3 GT ISZERO PUSH2 0x5BB JUMPI PUSH0 DUP2 PUSH0 SWAP1 SSTORE POP PUSH1 0x1 ADD PUSH2 0x5A5 JUMP JUMPDEST POP SWAP1 JUMP JUMPDEST PUSH0 DUP3 DUP3 MSTORE PUSH1 0x20 DUP3 ADD SWAP1 POP SWAP3 SWAP2 POP POP JUMP JUMPDEST PUSH32 0x4D75737420626520302E303145544820746F20656E74657220746865206C6F74 PUSH0 DUP3 ADD MSTORE PUSH32 0x746572792E000000000000000000000000000000000000000000000000000000 PUSH1 0x20 DUP3 ADD MSTORE POP JUMP JUMPDEST PUSH0 PUSH2 0x629 PUSH1 0x25 DUP4 PUSH2 0x5BF JUMP JUMPDEST SWAP2 POP PUSH2 0x634 DUP3 PUSH2 0x5CF JUMP JUMPDEST PUSH1 0x40 DUP3 ADD SWAP1 POP SWAP2 SWAP1 POP JUMP JUMPDEST PUSH0 PUSH1 0x20 DUP3 ADD SWAP1 POP DUP2 DUP2 SUB PUSH0 DUP4 ADD MSTORE PUSH2 0x656 DUP2 PUSH2 0x61D JUMP JUMPDEST SWAP1 POP SWAP2 SWAP1 POP JUMP JUMPDEST PUSH0 PUSH20 0xFFFFFFFFFFFFFFFFFFFFFFFFFFFFFFFFFFFFFFFF DUP3 AND SWAP1 POP SWAP2 SWAP1 POP JUMP JUMPDEST PUSH0 PUSH2 0x686 DUP3 PUSH2 0x65D JUMP JUMPDEST SWAP1 POP SWAP2 SWAP1 POP JUMP JUMPDEST PUSH2 0x696 DUP2 PUSH2 0x67C JUMP JUMPDEST DUP3 MSTORE POP POP JUMP JUMPDEST PUSH0 PUSH1 0x20 DUP3 ADD SWAP1 POP PUSH2 0x6AF PUSH0 DUP4 ADD DUP5 PUSH2 0x68D JUMP JUMPDEST SWAP3 SWAP2 POP POP JUMP JUMPDEST PUSH0 DUP2 MLOAD SWAP1 POP SWAP2 SWAP1 POP JUMP JUMPDEST PUSH0 DUP3 DUP3 MSTORE PUSH1 0x20 DUP3 ADD SWAP1 POP SWAP3 SWAP2 POP POP JUMP JUMPDEST PUSH0 DUP2 SWAP1 POP PUSH1 0x20 DUP3 ADD SWAP1 POP SWAP2 SWAP1 POP JUMP JUMPDEST PUSH0 PUSH2 0x6E8 DUP3 PUSH2 0x65D JUMP JUMPDEST SWAP1 POP SWAP2 SWAP1 POP JUMP JUMPDEST PUSH2 0x6F8 DUP2 PUSH2 0x6DE JUMP JUMPDEST DUP3 MSTORE POP POP JUMP JUMPDEST PUSH0 PUSH2 0x709 DUP4 DUP4 PUSH2 0x6EF JUMP JUMPDEST PUSH1 0x20 DUP4 ADD SWAP1 POP SWAP3 SWAP2 POP POP JUMP JUMPDEST PUSH0 PUSH1 0x20 DUP3 ADD SWAP1 POP SWAP2 SWAP1 POP JUMP JUMPDEST PUSH0 PUSH2 0x72B DUP3 PUSH2 0x6B5 JUMP JUMPDEST PUSH2 0x735 DUP2 DUP6 PUSH2 0x6BF JUMP JUMPDEST SWAP4 POP PUSH2 0x740 DUP4 PUSH2 0x6CF JUMP JUMPDEST DUP1 PUSH0 JUMPDEST DUP4 DUP2 LT ISZERO PUSH2 0x770 JUMPI DUP2 MLOAD PUSH2 0x757 DUP9 DUP3 PUSH2 0x6FE JUMP JUMPDEST SWAP8 POP PUSH2 0x762 DUP4 PUSH2 0x715 JUMP JUMPDEST SWAP3 POP POP PUSH1 0x1 DUP2 ADD SWAP1 POP PUSH2 0x743 JUMP JUMPDEST POP DUP6 SWAP4 POP POP POP POP SWAP3 SWAP2 POP POP JUMP JUMPDEST PUSH0 PUSH1 0x20 DUP3 ADD SWAP1 POP DUP2 DUP2 SUB PUSH0 DUP4 ADD MSTORE PUSH2 0x795 DUP2 DUP5 PUSH2 0x721 JUMP JUMPDEST SWAP1 POP SWAP3 SWAP2 POP POP JUMP JUMPDEST PUSH0 DUP1 REVERT JUMPDEST PUSH0 DUP2 SWAP1 POP SWAP2 SWAP1 POP JUMP JUMPDEST PUSH2 0x7B3 DUP2 PUSH2 0x7A1 JUMP JUMPDEST DUP2 EQ PUSH2 0x7BD JUMPI PUSH0 DUP1 REVERT JUMPDEST POP JUMP JUMPDEST PUSH0 DUP2 CALLDATALOAD SWAP1 POP PUSH2 0x7CE DUP2 PUSH2 0x7AA JUMP JUMPDEST SWAP3 SWAP2 POP POP JUMP JUMPDEST PUSH0 PUSH1 0x20 DUP3 DUP5 SUB SLT ISZERO PUSH2 0x7E9 JUMPI PUSH2 0x7E8 PUSH2 0x79D JUMP JUMPDEST JUMPDEST PUSH0 PUSH2 0x7F6 DUP5 DUP3 DUP6 ADD PUSH2 0x7C0 JUMP JUMPDEST SWAP2 POP POP SWAP3 SWAP2 POP POP JUMP JUMPDEST PUSH2 0x808 DUP2 PUSH2 0x6DE JUMP JUMPDEST DUP3 MSTORE POP POP JUMP JUMPDEST PUSH0 PUSH1 0x20 DUP3 ADD SWAP1 POP PUSH2 0x821 PUSH0 DUP4 ADD DUP5 PUSH2 0x7FF JUMP JUMPDEST SWAP3 SWAP2 POP POP JUMP JUMPDEST PUSH32 0x43616E206F6E6C792062652063616C6C6564206279206D616E616765722E0000 PUSH0 DUP3 ADD MSTORE POP JUMP JUMPDEST PUSH0 PUSH2 0x85B PUSH1 0x1E DUP4 PUSH2 0x5BF JUMP JUMPDEST SWAP2 POP PUSH2 0x866 DUP3 PUSH2 0x827 JUMP JUMPDEST PUSH1 0x20 DUP3 ADD SWAP1 POP SWAP2 SWAP1 POP JUMP JUMPDEST PUSH0 PUSH1 0x20 DUP3 ADD SWAP1 POP DUP2 DUP2 SUB PUSH0 DUP4 ADD MSTORE PUSH2 0x888 DUP2 PUSH2 0x84F JUMP JUMPDEST SWAP1 POP SWAP2 SWAP1 POP JUMP JUMPDEST PUSH32 0x4D757374206265206174206C65617374203320706C61796572732E0000000000 PUSH0 DUP3 ADD MSTORE POP JUMP JUMPDEST PUSH0 PUSH2 0x8C3 PUSH1 0x1B DUP4 PUSH2 0x5BF JUMP JUMPDEST SWAP2 POP PUSH2 0x8CE DUP3 PUSH2 0x88F JUMP JUMPDEST PUSH1 0x20 DUP3 ADD SWAP1 POP SWAP2 SWAP1 POP JUMP JUMPDEST PUSH0 PUSH1 0x20 DUP3 ADD SWAP1 POP DUP2 DUP2 SUB PUSH0 DUP4 ADD MSTORE PUSH2 0x8F0 DUP2 PUSH2 0x8B7 JUMP JUMPDEST SWAP1 POP SWAP2 SWAP1 POP JUMP JUMPDEST PUSH32 0x4E487B7100000000000000000000000000000000000000000000000000000000 PUSH0 MSTORE PUSH1 0x12 PUSH1 0x4 MSTORE PUSH1 0x24 PUSH0 REVERT JUMPDEST PUSH0 PUSH2 0x92E DUP3 PUSH2 0x7A1 JUMP JUMPDEST SWAP2 POP PUSH2 0x939 DUP4 PUSH2 0x7A1 JUMP JUMPDEST SWAP3 POP DUP3 PUSH2 0x949 JUMPI PUSH2 0x948 PUSH2 0x8F7 JUMP JUMPDEST JUMPDEST DUP3 DUP3 MOD SWAP1 POP SWAP3 SWAP2 POP POP JUMP JUMPDEST PUSH32 0x4E487B7100000000000000000000000000000000000000000000000000000000 PUSH0 MSTORE PUSH1 0x32 PUSH1 0x4 MSTORE PUSH1 0x24 PUSH0 REVERT JUMPDEST PUSH32 0x4E487B7100000000000000000000000000000000000000000000000000000000 PUSH0 MSTORE PUSH1 0x41 PUSH1 0x4 MSTORE PUSH1 0x24 PUSH0 REVERT JUMPDEST PUSH0 DUP2 SWAP1 POP SWAP2 SWAP1 POP JUMP JUMPDEST PUSH2 0x9C8 PUSH2 0x9C3 DUP3 PUSH2 0x7A1 JUMP JUMPDEST PUSH2 0x9AE JUMP JUMPDEST DUP3 MSTORE POP POP JUMP JUMPDEST PUSH0 DUP2 SLOAD SWAP1 POP SWAP2 SWAP1 POP JUMP JUMPDEST PUSH0 DUP2 SWAP1 POP SWAP3 SWAP2 POP POP JUMP JUMPDEST PUSH0 DUP2 SWAP1 POP DUP2 PUSH0 MSTORE PUSH1 0x20 PUSH0 KECCAK256 SWAP1 POP SWAP2 SWAP1 POP JUMP JUMPDEST PUSH2 0x9FD DUP2 PUSH2 0x6DE JUMP JUMPDEST DUP3 MSTORE POP POP JUMP JUMPDEST PUSH0 PUSH2 0xA0E DUP4 DUP4 PUSH2 0x9F4 JUMP JUMPDEST PUSH1 0x20 DUP4 ADD SWAP1 POP SWAP3 SWAP2 POP POP JUMP JUMPDEST PUSH0 DUP2 PUSH0 SHR SWAP1 POP SWAP2 SWAP1 POP JUMP JUMPDEST PUSH0 PUSH20 0xFFFFFFFFFFFFFFFFFFFFFFFFFFFFFFFFFFFFFFFF DUP3 AND SWAP1 POP SWAP2 SWAP1 POP JUMP JUMPDEST PUSH0 PUSH2 0xA56 PUSH2 0xA51 DUP4 PUSH2 0xA1A JUMP JUMPDEST PUSH2 0xA25 JUMP JUMPDEST SWAP1 POP SWAP2 SWAP1 POP JUMP JUMPDEST PUSH0 PUSH2 0xA68 DUP3 SLOAD PUSH2 0xA44 JUMP JUMPDEST SWAP1 POP SWAP2 SWAP1 POP JUMP JUMPDEST PUSH0 PUSH1 0x1 DUP3 ADD SWAP1 POP SWAP2 SWAP1 POP JUMP JUMPDEST PUSH0 PUSH2 0xA85 DUP3 PUSH2 0x9CE JUMP JUMPDEST PUSH2 0xA8F DUP2 DUP6 PUSH2 0x9D8 JUMP JUMPDEST SWAP4 POP PUSH2 0xA9A DUP4 PUSH2 0x9E2 JUMP JUMPDEST DUP1 PUSH0 JUMPDEST DUP4 DUP2 LT ISZERO PUSH2 0xAD1 JUMPI PUSH2 0xAAE DUP3 PUSH2 0xA5D JUMP JUMPDEST PUSH2 0xAB8 DUP9 DUP3 PUSH2 0xA03 JUMP JUMPDEST SWAP8 POP PUSH2 0xAC3 DUP4 PUSH2 0xA6F JUMP JUMPDEST SWAP3 POP POP PUSH1 0x1 DUP2 ADD SWAP1 POP PUSH2 0xA9D JUMP JUMPDEST POP DUP6 SWAP4 POP POP POP POP SWAP3 SWAP2 POP POP JUMP JUMPDEST PUSH0 PUSH2 0xAE9 DUP3 DUP7 PUSH2 0x9B7 JUMP JUMPDEST PUSH1 0x20 DUP3 ADD SWAP2 POP PUSH2 0xAF9 DUP3 DUP6 PUSH2 0x9B7 JUMP JUMPDEST PUSH1 0x20 DUP3 ADD SWAP2 POP PUSH2 0xB09 DUP3 DUP5 PUSH2 0xA7B JUMP JUMPDEST SWAP2 POP DUP2 SWAP1 POP SWAP5 SWAP4 POP POP POP POP JUMP INVALID LOG2 PUSH5 0x6970667358 0x22 SLT KECCAK256 CALLDATALOAD 0xB3 0xC8 PUSH32 0x49EC64F9E8297461CF9867B54E70623580ED138848652417E8AEFA3B64736F6C PUSH4 0x4300081A STOP CALLER "
				},
				"gasEstimates": {
					"creation": {
						"codeDepositCost": "578400",
						"executionCost": "24876",
						"totalCost": "603276"
					},
					"external": {
						"getPlayers()": "infinite",
						"manager()": "2483",
						"pickWinner()": "infinite",
						"players(uint256)": "4988"
					},
					"internal": {
						"randomizer()": "infinite"
					}
				},
				"methodIdentifiers": {
					"getPlayers()": "8b5b9ccc",
					"manager()": "481c6a75",
					"pickWinner()": "5d495aea",
					"players(uint256)": "f71d96cb"
				}
			},
			"storageLayout": {
				"storage": [
					{
						"astId": 3,
						"contract": "contracts/3_Ballot.sol:Lottery",
						"label": "manager",
						"offset": 0,
						"slot": "0",
						"type": "t_address"
					},
					{
						"astId": 6,
						"contract": "contracts/3_Ballot.sol:Lottery",
						"label": "players",
						"offset": 0,
						"slot": "1",
						"type": "t_array(t_address_payable)dyn_storage"
					}
				],
				"types": {
					"t_address": {
						"encoding": "inplace",
						"label": "address",
						"numberOfBytes": "20"
					},
					"t_address_payable": {
						"encoding": "inplace",
						"label": "address payable",
						"numberOfBytes": "20"
					},
					"t_array(t_address_payable)dyn_storage": {
						"base": "t_address_payable",
						"encoding": "dynamic_array",
						"label": "address payable[]",
						"numberOfBytes": "32"
					}
				}
			},
			"userdoc": {
				"kind": "user",
				"methods": {},
				"version": 1
			}
		}
	}
}